:100000000C9434000C9446000C9446000C9446006A
:100010000C9446000C9446000C9446000C94460048
:100020000C9446000C9446000C9446000C94460038
:100030000C9446000C9446000C9446000C94460028
:100040000C9446000C9446000C9446000C94460018
:100050000C9446000C9446000C9446000C94460008
:100060000C9446000C94460011241FBECFEFD8E03C
:10007000DEBFCDBF21E0A0E0B1E001C01D92A03104
:10008000B207E1F70E9448000C94EE000C940000C7
:100090008AB184708AB98AB188708AB98AB180714C
:1000A0008AB98AB180728AB984B1817084B984B105
:1000B000827084B9259A61E070E0B0E289B121E0F4
:1000C00030E0E82FE47082FD02C020E030E03093A1
:1000D00009012093080189B121E030E0F82FF87080
:1000E00083FD02C020E030E030930F0120930E0129
:1000F00089B121E030E0A82FA07184FD02C020E08A
:1001000030E0309303012093020189B121E030E017
:10011000C82FC07285FD02C020E030E030930D0191
:1001200020930C0123B12170822F90E090930B015A
:1001300080930A0183B141E030E0582F527081FF73
:1001400040E0842F932F9093050180930401222394
:1001500001F15523D1F1CC23D1F1709301016093CA
:10016000000121E030E0E1E040E05111E0E08E2FBD
:10017000942F909307018093060182179307D1F083
:1001800015B889B121E030E0E82FE47082FD9FCFFF
:100190009CCF552389F0FF2389F070930101609370
:1001A000000121E030E0909307018093060182175F
:1001B000930731F7B5B982CFE111EFCF109201016A
:1001C0001092000120E030E0D4CFA111C6CF1092F0
:1001D00001011092000120E030E0C5CFF894FFCF7C
:00000001FF
